{
  "contractName": "myNFT",
  "abi": [
    {
      "inputs": [],
      "stateMutability": "nonpayable",
      "type": "constructor"
    },
    {
      "anonymous": false,
      "inputs": [
        {
          "indexed": true,
          "internalType": "address",
          "name": "owner",
          "type": "address"
        },
        {
          "indexed": true,
          "internalType": "address",
          "name": "approved",
          "type": "address"
        },
        {
          "indexed": true,
          "internalType": "uint256",
          "name": "tokenId",
          "type": "uint256"
        }
      ],
      "name": "Approval",
      "type": "event"
    },
    {
      "anonymous": false,
      "inputs": [
        {
          "indexed": true,
          "internalType": "address",
          "name": "owner",
          "type": "address"
        },
        {
          "indexed": true,
          "internalType": "address",
          "name": "operator",
          "type": "address"
        },
        {
          "indexed": false,
          "internalType": "bool",
          "name": "approved",
          "type": "bool"
        }
      ],
      "name": "ApprovalForAll",
      "type": "event"
    },
    {
      "anonymous": false,
      "inputs": [
        {
          "indexed": true,
          "internalType": "address",
          "name": "minter",
          "type": "address"
        },
        {
          "indexed": false,
          "internalType": "uint256",
          "name": "price",
          "type": "uint256"
        },
        {
          "indexed": false,
          "internalType": "uint256",
          "name": "nftID",
          "type": "uint256"
        },
        {
          "indexed": false,
          "internalType": "string",
          "name": "tokenURI",
          "type": "string"
        }
      ],
      "name": "Minted",
      "type": "event"
    },
    {
      "anonymous": false,
      "inputs": [
        {
          "indexed": true,
          "internalType": "address",
          "name": "previousOwner",
          "type": "address"
        },
        {
          "indexed": true,
          "internalType": "address",
          "name": "newOwner",
          "type": "address"
        }
      ],
      "name": "OwnershipTransferred",
      "type": "event"
    },
    {
      "anonymous": false,
      "inputs": [
        {
          "indexed": true,
          "internalType": "address",
          "name": "from",
          "type": "address"
        },
        {
          "indexed": true,
          "internalType": "address",
          "name": "to",
          "type": "address"
        },
        {
          "indexed": true,
          "internalType": "uint256",
          "name": "tokenId",
          "type": "uint256"
        }
      ],
      "name": "Transfer",
      "type": "event"
    },
    {
      "inputs": [
        {
          "internalType": "address",
          "name": "to",
          "type": "address"
        },
        {
          "internalType": "uint256",
          "name": "tokenId",
          "type": "uint256"
        }
      ],
      "name": "approve",
      "outputs": [],
      "stateMutability": "nonpayable",
      "type": "function"
    },
    {
      "inputs": [
        {
          "internalType": "address",
          "name": "owner",
          "type": "address"
        }
      ],
      "name": "balanceOf",
      "outputs": [
        {
          "internalType": "uint256",
          "name": "",
          "type": "uint256"
        }
      ],
      "stateMutability": "view",
      "type": "function",
      "constant": true
    },
    {
      "inputs": [
        {
          "internalType": "uint256",
          "name": "tokenId",
          "type": "uint256"
        }
      ],
      "name": "getApproved",
      "outputs": [
        {
          "internalType": "address",
          "name": "",
          "type": "address"
        }
      ],
      "stateMutability": "view",
      "type": "function",
      "constant": true
    },
    {
      "inputs": [
        {
          "internalType": "address",
          "name": "owner",
          "type": "address"
        },
        {
          "internalType": "address",
          "name": "operator",
          "type": "address"
        }
      ],
      "name": "isApprovedForAll",
      "outputs": [
        {
          "internalType": "bool",
          "name": "",
          "type": "bool"
        }
      ],
      "stateMutability": "view",
      "type": "function",
      "constant": true
    },
    {
      "inputs": [],
      "name": "name",
      "outputs": [
        {
          "internalType": "string",
          "name": "",
          "type": "string"
        }
      ],
      "stateMutability": "view",
      "type": "function",
      "constant": true
    },
    {
      "inputs": [],
      "name": "owner",
      "outputs": [
        {
          "internalType": "address",
          "name": "",
          "type": "address"
        }
      ],
      "stateMutability": "view",
      "type": "function",
      "constant": true
    },
    {
      "inputs": [
        {
          "internalType": "uint256",
          "name": "tokenId",
          "type": "uint256"
        }
      ],
      "name": "ownerOf",
      "outputs": [
        {
          "internalType": "address",
          "name": "",
          "type": "address"
        }
      ],
      "stateMutability": "view",
      "type": "function",
      "constant": true
    },
    {
      "inputs": [],
      "name": "renounceOwnership",
      "outputs": [],
      "stateMutability": "nonpayable",
      "type": "function"
    },
    {
      "inputs": [
        {
          "internalType": "address",
          "name": "from",
          "type": "address"
        },
        {
          "internalType": "address",
          "name": "to",
          "type": "address"
        },
        {
          "internalType": "uint256",
          "name": "tokenId",
          "type": "uint256"
        }
      ],
      "name": "safeTransferFrom",
      "outputs": [],
      "stateMutability": "nonpayable",
      "type": "function"
    },
    {
      "inputs": [
        {
          "internalType": "address",
          "name": "from",
          "type": "address"
        },
        {
          "internalType": "address",
          "name": "to",
          "type": "address"
        },
        {
          "internalType": "uint256",
          "name": "tokenId",
          "type": "uint256"
        },
        {
          "internalType": "bytes",
          "name": "data",
          "type": "bytes"
        }
      ],
      "name": "safeTransferFrom",
      "outputs": [],
      "stateMutability": "nonpayable",
      "type": "function"
    },
    {
      "inputs": [
        {
          "internalType": "address",
          "name": "operator",
          "type": "address"
        },
        {
          "internalType": "bool",
          "name": "approved",
          "type": "bool"
        }
      ],
      "name": "setApprovalForAll",
      "outputs": [],
      "stateMutability": "nonpayable",
      "type": "function"
    },
    {
      "inputs": [
        {
          "internalType": "bytes4",
          "name": "interfaceId",
          "type": "bytes4"
        }
      ],
      "name": "supportsInterface",
      "outputs": [
        {
          "internalType": "bool",
          "name": "",
          "type": "bool"
        }
      ],
      "stateMutability": "view",
      "type": "function",
      "constant": true
    },
    {
      "inputs": [],
      "name": "symbol",
      "outputs": [
        {
          "internalType": "string",
          "name": "",
          "type": "string"
        }
      ],
      "stateMutability": "view",
      "type": "function",
      "constant": true
    },
    {
      "inputs": [],
      "name": "tokenCounter",
      "outputs": [
        {
          "internalType": "uint256",
          "name": "",
          "type": "uint256"
        }
      ],
      "stateMutability": "view",
      "type": "function",
      "constant": true
    },
    {
      "inputs": [
        {
          "internalType": "uint256",
          "name": "",
          "type": "uint256"
        }
      ],
      "name": "tokenOwner",
      "outputs": [
        {
          "internalType": "address",
          "name": "",
          "type": "address"
        }
      ],
      "stateMutability": "view",
      "type": "function",
      "constant": true
    },
    {
      "inputs": [
        {
          "internalType": "uint256",
          "name": "tokenId",
          "type": "uint256"
        }
      ],
      "name": "tokenURI",
      "outputs": [
        {
          "internalType": "string",
          "name": "",
          "type": "string"
        }
      ],
      "stateMutability": "view",
      "type": "function",
      "constant": true
    },
    {
      "inputs": [
        {
          "internalType": "uint256",
          "name": "",
          "type": "uint256"
        }
      ],
      "name": "tokenURIMap",
      "outputs": [
        {
          "internalType": "string",
          "name": "",
          "type": "string"
        }
      ],
      "stateMutability": "view",
      "type": "function",
      "constant": true
    },
    {
      "inputs": [
        {
          "internalType": "address",
          "name": "from",
          "type": "address"
        },
        {
          "internalType": "address",
          "name": "to",
          "type": "address"
        },
        {
          "internalType": "uint256",
          "name": "tokenId",
          "type": "uint256"
        }
      ],
      "name": "transferFrom",
      "outputs": [],
      "stateMutability": "nonpayable",
      "type": "function"
    },
    {
      "inputs": [
        {
          "internalType": "address",
          "name": "newOwner",
          "type": "address"
        }
      ],
      "name": "transferOwnership",
      "outputs": [],
      "stateMutability": "nonpayable",
      "type": "function"
    },
    {
      "inputs": [
        {
          "internalType": "string",
          "name": "_uri",
          "type": "string"
        },
        {
          "internalType": "uint256",
          "name": "_price",
          "type": "uint256"
        },
        {
          "internalType": "uint256",
          "name": "_mintAmount",
          "type": "uint256"
        }
      ],
      "name": "mint",
      "outputs": [
        {
          "internalType": "uint256",
          "name": "",
          "type": "uint256"
        }
      ],
      "stateMutability": "nonpayable",
      "type": "function"
    },
    {
      "inputs": [
        {
          "internalType": "uint256",
          "name": "_tokenId",
          "type": "uint256"
        },
        {
          "internalType": "string",
          "name": "_tokenURI",
          "type": "string"
        }
      ],
      "name": "updateTokenURI",
      "outputs": [],
      "stateMutability": "nonpayable",
      "type": "function"
    }
  ],
  "bytecode": "0x60806040523480156200001157600080fd5b506040518060400160405280600781526020017f77626d4e465473000000000000000000000000000000000000000000000000008152506040518060400160405280600381526020017f57424d000000000000000000000000000000000000000000000000000000000081525081600090816200008f919062000412565b508060019081620000a1919062000412565b505050620000c4620000b8620000ca60201b60201c565b620000d260201b60201c565b620004f9565b600033905090565b6000600760009054906101000a900473ffffffffffffffffffffffffffffffffffffffff16905081600760006101000a81548173ffffffffffffffffffffffffffffffffffffffff021916908373ffffffffffffffffffffffffffffffffffffffff1602179055508173ffffffffffffffffffffffffffffffffffffffff168173ffffffffffffffffffffffffffffffffffffffff167f8be0079c531659141344cd1fd0a4f28419497f9722a3daafe3b4186f6b6457e060405160405180910390a35050565b600081519050919050565b7f4e487b7100000000000000000000000000000000000000000000000000000000600052604160045260246000fd5b7f4e487b7100000000000000000000000000000000000000000000000000000000600052602260045260246000fd5b600060028204905060018216806200021a57607f821691505b60208210810362000230576200022f620001d2565b5b50919050565b60008190508160005260206000209050919050565b60006020601f8301049050919050565b600082821b905092915050565b6000600883026200029a7fffffffffffffffffffffffffffffffffffffffffffffffffffffffffffffffff826200025b565b620002a686836200025b565b95508019841693508086168417925050509392505050565b6000819050919050565b6000819050919050565b6000620002f3620002ed620002e784620002be565b620002c8565b620002be565b9050919050565b6000819050919050565b6200030f83620002d2565b620003276200031e82620002fa565b84845462000268565b825550505050565b600090565b6200033e6200032f565b6200034b81848462000304565b505050565b5b8181101562000373576200036760008262000334565b60018101905062000351565b5050565b601f821115620003c2576200038c8162000236565b62000397846200024b565b81016020851015620003a7578190505b620003bf620003b6856200024b565b83018262000350565b50505b505050565b600082821c905092915050565b6000620003e760001984600802620003c7565b1980831691505092915050565b6000620004028383620003d4565b9150826002028217905092915050565b6200041d8262000198565b67ffffffffffffffff811115620004395762000438620001a3565b5b62000445825462000201565b6200045282828562000377565b600060209050601f8311600181146200048a576000841562000475578287015190505b620004818582620003f4565b865550620004f1565b601f1984166200049a8662000236565b60005b82811015620004c4578489015182556001820191506020850194506020810190506200049d565b86831015620004e45784890151620004e0601f891682620003d4565b8355505b6001600288020188555050505b505050505050565b61332180620005096000396000f3fe608060405234801561001057600080fd5b50600436106101375760003560e01c80636352211e116100b8578063a22cb4651161007c578063a22cb46514610360578063b88d4fde1461037c578063c87b56dd14610398578063d082e381146103c8578063e985e9c5146103e6578063f2fde38b1461041657610137565b80636352211e146102ba57806370a08231146102ea578063715018a61461031a5780638da5cb5b1461032457806395d89b411461034257610137565b80631c635ded116100ff5780631c635ded146101f25780631caaa4871461022257806323b872dd1461025257806342842e0e1461026e5780635a18ee1a1461028a57610137565b806301ffc9a71461013c57806306fdde031461016c578063081812fc1461018a578063095ea7b3146101ba57806318e97fd1146101d6575b600080fd5b61015660048036038101906101519190611df7565b610432565b6040516101639190611e3f565b60405180910390f35b610174610514565b6040516101819190611eea565b60405180910390f35b6101a4600480360381019061019f9190611f42565b6105a6565b6040516101b19190611fb0565b60405180910390f35b6101d460048036038101906101cf9190611ff7565b6105ec565b005b6101f060048036038101906101eb919061216c565b610703565b005b61020c600480360381019061020791906121c8565b6107fc565b6040516102199190612246565b60405180910390f35b61023c60048036038101906102379190611f42565b61091e565b6040516102499190611fb0565b60405180910390f35b61026c60048036038101906102679190612261565b610951565b005b61028860048036038101906102839190612261565b6109b1565b005b6102a4600480360381019061029f9190611f42565b6109d1565b6040516102b19190611eea565b60405180910390f35b6102d460048036038101906102cf9190611f42565b610a71565b6040516102e19190611fb0565b60405180910390f35b61030460048036038101906102ff91906122b4565b610b22565b6040516103119190612246565b60405180910390f35b610322610bd9565b005b61032c610bed565b6040516103399190611fb0565b60405180910390f35b61034a610c17565b6040516103579190611eea565b60405180910390f35b61037a6004803603810190610375919061230d565b610ca9565b005b610396600480360381019061039191906123ee565b610cbf565b005b6103b260048036038101906103ad9190611f42565b610d21565b6040516103bf9190611eea565b60405180910390f35b6103d0610e33565b6040516103dd9190612246565b60405180910390f35b61040060048036038101906103fb9190612471565b610e39565b60405161040d9190611e3f565b60405180910390f35b610430600480360381019061042b91906122b4565b610ecd565b005b60007f80ac58cd000000000000000000000000000000000000000000000000000000007bffffffffffffffffffffffffffffffffffffffffffffffffffffffff1916827bffffffffffffffffffffffffffffffffffffffffffffffffffffffff191614806104fd57507f5b5e139f000000000000000000000000000000000000000000000000000000007bffffffffffffffffffffffffffffffffffffffffffffffffffffffff1916827bffffffffffffffffffffffffffffffffffffffffffffffffffffffff1916145b8061050d575061050c82610f50565b5b9050919050565b606060008054610523906124e0565b80601f016020809104026020016040519081016040528092919081815260200182805461054f906124e0565b801561059c5780601f106105715761010080835404028352916020019161059c565b820191906000526020600020905b81548152906001019060200180831161057f57829003601f168201915b5050505050905090565b60006105b182610fba565b6004600083815260200190815260200160002060009054906101000a900473ffffffffffffffffffffffffffffffffffffffff169050919050565b60006105f782610a71565b90508073ffffffffffffffffffffffffffffffffffffffff168373ffffffffffffffffffffffffffffffffffffffff1603610667576040517f08c379a000000000000000000000000000000000000000000000000000000000815260040161065e90612583565b60405180910390fd5b8073ffffffffffffffffffffffffffffffffffffffff16610686611005565b73ffffffffffffffffffffffffffffffffffffffff1614806106b557506106b4816106af611005565b610e39565b5b6106f4576040517f08c379a00000000000000000000000000000000000000000000000000000000081526004016106eb90612615565b60405180910390fd5b6106fe838361100d565b505050565b813373ffffffffffffffffffffffffffffffffffffffff16600a600083815260200190815260200160002060009054906101000a900473ffffffffffffffffffffffffffffffffffffffff1673ffffffffffffffffffffffffffffffffffffffff16146107a5576040517f08c379a000000000000000000000000000000000000000000000000000000000815260040161079c90612681565b60405180910390fd5b6107ae836110c6565b6107ed576040517f08c379a00000000000000000000000000000000000000000000000000000000081526004016107e490612713565b60405180910390fd5b6107f78383611132565b505050565b600080600854905060005b8381116109125761082333828461081e9190612762565b61119f565b33600a600083856108349190612762565b815260200190815260200160002060006101000a81548173ffffffffffffffffffffffffffffffffffffffff021916908373ffffffffffffffffffffffffffffffffffffffff160217905550610895818361088f9190612762565b87611132565b600860008154809291906108a890612796565b91905055503373ffffffffffffffffffffffffffffffffffffffff167ff2cb5e52049d127ad1c335f1cc25f2fdbc911bec1beb2611f4c1e8b1c274d4b48684896040516108f7939291906127de565b60405180910390a2808061090a90612796565b915050610807565b50809150509392505050565b600a6020528060005260406000206000915054906101000a900473ffffffffffffffffffffffffffffffffffffffff1681565b61096261095c611005565b826111bd565b6109a1576040517f08c379a00000000000000000000000000000000000000000000000000000000081526004016109989061288e565b60405180910390fd5b6109ac838383611252565b505050565b6109cc83838360405180602001604052806000815250610cbf565b505050565b600960205280600052604060002060009150905080546109f0906124e0565b80601f0160208091040260200160405190810160405280929190818152602001828054610a1c906124e0565b8015610a695780601f10610a3e57610100808354040283529160200191610a69565b820191906000526020600020905b815481529060010190602001808311610a4c57829003601f168201915b505050505081565b6000806002600084815260200190815260200160002060009054906101000a900473ffffffffffffffffffffffffffffffffffffffff169050600073ffffffffffffffffffffffffffffffffffffffff168173ffffffffffffffffffffffffffffffffffffffff1603610b19576040517f08c379a0000000000000000000000000000000000000000000000000000000008152600401610b10906128fa565b60405180910390fd5b80915050919050565b60008073ffffffffffffffffffffffffffffffffffffffff168273ffffffffffffffffffffffffffffffffffffffff1603610b92576040517f08c379a0000000000000000000000000000000000000000000000000000000008152600401610b899061298c565b60405180910390fd5b600360008373ffffffffffffffffffffffffffffffffffffffff1673ffffffffffffffffffffffffffffffffffffffff168152602001908152602001600020549050919050565b610be16114b8565b610beb6000611536565b565b6000600760009054906101000a900473ffffffffffffffffffffffffffffffffffffffff16905090565b606060018054610c26906124e0565b80601f0160208091040260200160405190810160405280929190818152602001828054610c52906124e0565b8015610c9f5780601f10610c7457610100808354040283529160200191610c9f565b820191906000526020600020905b815481529060010190602001808311610c8257829003601f168201915b5050505050905090565b610cbb610cb4611005565b83836115fc565b5050565b610cd0610cca611005565b836111bd565b610d0f576040517f08c379a0000000000000000000000000000000000000000000000000000000008152600401610d069061288e565b60405180910390fd5b610d1b84848484611768565b50505050565b6060610d2c82610fba565b6000600660008481526020019081526020016000208054610d4c906124e0565b80601f0160208091040260200160405190810160405280929190818152602001828054610d78906124e0565b8015610dc55780601f10610d9a57610100808354040283529160200191610dc5565b820191906000526020600020905b815481529060010190602001808311610da857829003601f168201915b505050505090506000610dd66117c4565b90506000815103610deb578192505050610e2e565b600082511115610e20578082604051602001610e089291906129e8565b60405160208183030381529060405292505050610e2e565b610e29846117db565b925050505b919050565b60085481565b6000600560008473ffffffffffffffffffffffffffffffffffffffff1673ffffffffffffffffffffffffffffffffffffffff16815260200190815260200160002060008373ffffffffffffffffffffffffffffffffffffffff1673ffffffffffffffffffffffffffffffffffffffff16815260200190815260200160002060009054906101000a900460ff16905092915050565b610ed56114b8565b600073ffffffffffffffffffffffffffffffffffffffff168173ffffffffffffffffffffffffffffffffffffffff1603610f44576040517f08c379a0000000000000000000000000000000000000000000000000000000008152600401610f3b90612a7e565b60405180910390fd5b610f4d81611536565b50565b60007f01ffc9a7000000000000000000000000000000000000000000000000000000007bffffffffffffffffffffffffffffffffffffffffffffffffffffffff1916827bffffffffffffffffffffffffffffffffffffffffffffffffffffffff1916149050919050565b610fc3816110c6565b611002576040517f08c379a0000000000000000000000000000000000000000000000000000000008152600401610ff9906128fa565b60405180910390fd5b50565b600033905090565b816004600083815260200190815260200160002060006101000a81548173ffffffffffffffffffffffffffffffffffffffff021916908373ffffffffffffffffffffffffffffffffffffffff160217905550808273ffffffffffffffffffffffffffffffffffffffff1661108083610a71565b73ffffffffffffffffffffffffffffffffffffffff167f8c5be1e5ebec7d5bd14f71427d1e84f3dd0314c0f7b2291e5b200ac8c7c3b92560405160405180910390a45050565b60008073ffffffffffffffffffffffffffffffffffffffff166002600084815260200190815260200160002060009054906101000a900473ffffffffffffffffffffffffffffffffffffffff1673ffffffffffffffffffffffffffffffffffffffff1614159050919050565b61113b826110c6565b61117a576040517f08c379a000000000000000000000000000000000000000000000000000000000815260040161117190612b10565b60405180910390fd5b8060066000848152602001908152602001600020908161119a9190612cdc565b505050565b6111b9828260405180602001604052806000815250611843565b5050565b6000806111c983610a71565b90508073ffffffffffffffffffffffffffffffffffffffff168473ffffffffffffffffffffffffffffffffffffffff16148061120b575061120a8185610e39565b5b8061124957508373ffffffffffffffffffffffffffffffffffffffff16611231846105a6565b73ffffffffffffffffffffffffffffffffffffffff16145b91505092915050565b8273ffffffffffffffffffffffffffffffffffffffff1661127282610a71565b73ffffffffffffffffffffffffffffffffffffffff16146112c8576040517f08c379a00000000000000000000000000000000000000000000000000000000081526004016112bf90612e20565b60405180910390fd5b600073ffffffffffffffffffffffffffffffffffffffff168273ffffffffffffffffffffffffffffffffffffffff1603611337576040517f08c379a000000000000000000000000000000000000000000000000000000000815260040161132e90612eb2565b60405180910390fd5b61134283838361189e565b61134d60008261100d565b6001600360008573ffffffffffffffffffffffffffffffffffffffff1673ffffffffffffffffffffffffffffffffffffffff168152602001908152602001600020600082825461139d9190612ed2565b925050819055506001600360008473ffffffffffffffffffffffffffffffffffffffff1673ffffffffffffffffffffffffffffffffffffffff16815260200190815260200160002060008282546113f49190612762565b92505081905550816002600083815260200190815260200160002060006101000a81548173ffffffffffffffffffffffffffffffffffffffff021916908373ffffffffffffffffffffffffffffffffffffffff160217905550808273ffffffffffffffffffffffffffffffffffffffff168473ffffffffffffffffffffffffffffffffffffffff167fddf252ad1be2c89b69c2b068fc378daa952ba7f163c4a11628f55a4df523b3ef60405160405180910390a46114b38383836118a3565b505050565b6114c0611005565b73ffffffffffffffffffffffffffffffffffffffff166114de610bed565b73ffffffffffffffffffffffffffffffffffffffff1614611534576040517f08c379a000000000000000000000000000000000000000000000000000000000815260040161152b90612f52565b60405180910390fd5b565b6000600760009054906101000a900473ffffffffffffffffffffffffffffffffffffffff16905081600760006101000a81548173ffffffffffffffffffffffffffffffffffffffff021916908373ffffffffffffffffffffffffffffffffffffffff1602179055508173ffffffffffffffffffffffffffffffffffffffff168173ffffffffffffffffffffffffffffffffffffffff167f8be0079c531659141344cd1fd0a4f28419497f9722a3daafe3b4186f6b6457e060405160405180910390a35050565b8173ffffffffffffffffffffffffffffffffffffffff168373ffffffffffffffffffffffffffffffffffffffff160361166a576040517f08c379a000000000000000000000000000000000000000000000000000000000815260040161166190612fbe565b60405180910390fd5b80600560008573ffffffffffffffffffffffffffffffffffffffff1673ffffffffffffffffffffffffffffffffffffffff16815260200190815260200160002060008473ffffffffffffffffffffffffffffffffffffffff1673ffffffffffffffffffffffffffffffffffffffff16815260200190815260200160002060006101000a81548160ff0219169083151502179055508173ffffffffffffffffffffffffffffffffffffffff168373ffffffffffffffffffffffffffffffffffffffff167f17307eab39ab6107e8899845ad3d59bd9653f200f220920489ca2b5937696c318360405161175b9190611e3f565b60405180910390a3505050565b611773848484611252565b61177f848484846118a8565b6117be576040517f08c379a00000000000000000000000000000000000000000000000000000000081526004016117b590613050565b60405180910390fd5b50505050565b606060405180602001604052806000815250905090565b60606117e682610fba565b60006117f06117c4565b90506000815111611810576040518060200160405280600081525061183b565b8061181a84611a2f565b60405160200161182b9291906129e8565b6040516020818303038152906040525b915050919050565b61184d8383611b8f565b61185a60008484846118a8565b611899576040517f08c379a000000000000000000000000000000000000000000000000000000000815260040161189090613050565b60405180910390fd5b505050565b505050565b505050565b60006118c98473ffffffffffffffffffffffffffffffffffffffff16611d68565b15611a22578373ffffffffffffffffffffffffffffffffffffffff1663150b7a026118f2611005565b8786866040518563ffffffff1660e01b815260040161191494939291906130c5565b6020604051808303816000875af192505050801561195057506040513d601f19601f8201168201806040525081019061194d9190613126565b60015b6119d2573d8060008114611980576040519150601f19603f3d011682016040523d82523d6000602084013e611985565b606091505b5060008151036119ca576040517f08c379a00000000000000000000000000000000000000000000000000000000081526004016119c190613050565b60405180910390fd5b805181602001fd5b63150b7a0260e01b7bffffffffffffffffffffffffffffffffffffffffffffffffffffffff1916817bffffffffffffffffffffffffffffffffffffffffffffffffffffffff191614915050611a27565b600190505b949350505050565b606060008203611a76576040518060400160405280600181526020017f30000000000000000000000000000000000000000000000000000000000000008152509050611b8a565b600082905060005b60008214611aa8578080611a9190612796565b915050600a82611aa19190613182565b9150611a7e565b60008167ffffffffffffffff811115611ac457611ac3612041565b5b6040519080825280601f01601f191660200182016040528015611af65781602001600182028036833780820191505090505b5090505b60008514611b8357600182611b0f9190612ed2565b9150600a85611b1e91906131b3565b6030611b2a9190612762565b60f81b818381518110611b4057611b3f6131e4565b5b60200101907effffffffffffffffffffffffffffffffffffffffffffffffffffffffffffff1916908160001a905350600a85611b7c9190613182565b9450611afa565b8093505050505b919050565b600073ffffffffffffffffffffffffffffffffffffffff168273ffffffffffffffffffffffffffffffffffffffff1603611bfe576040517f08c379a0000000000000000000000000000000000000000000000000000000008152600401611bf59061325f565b60405180910390fd5b611c07816110c6565b15611c47576040517f08c379a0000000000000000000000000000000000000000000000000000000008152600401611c3e906132cb565b60405180910390fd5b611c536000838361189e565b6001600360008473ffffffffffffffffffffffffffffffffffffffff1673ffffffffffffffffffffffffffffffffffffffff1681526020019081526020016000206000828254611ca39190612762565b92505081905550816002600083815260200190815260200160002060006101000a81548173ffffffffffffffffffffffffffffffffffffffff021916908373ffffffffffffffffffffffffffffffffffffffff160217905550808273ffffffffffffffffffffffffffffffffffffffff16600073ffffffffffffffffffffffffffffffffffffffff167fddf252ad1be2c89b69c2b068fc378daa952ba7f163c4a11628f55a4df523b3ef60405160405180910390a4611d64600083836118a3565b5050565b6000808273ffffffffffffffffffffffffffffffffffffffff163b119050919050565b6000604051905090565b600080fd5b600080fd5b60007fffffffff0000000000000000000000000000000000000000000000000000000082169050919050565b611dd481611d9f565b8114611ddf57600080fd5b50565b600081359050611df181611dcb565b92915050565b600060208284031215611e0d57611e0c611d95565b5b6000611e1b84828501611de2565b91505092915050565b60008115159050919050565b611e3981611e24565b82525050565b6000602082019050611e546000830184611e30565b92915050565b600081519050919050565b600082825260208201905092915050565b60005b83811015611e94578082015181840152602081019050611e79565b60008484015250505050565b6000601f19601f8301169050919050565b6000611ebc82611e5a565b611ec68185611e65565b9350611ed6818560208601611e76565b611edf81611ea0565b840191505092915050565b60006020820190508181036000830152611f048184611eb1565b905092915050565b6000819050919050565b611f1f81611f0c565b8114611f2a57600080fd5b50565b600081359050611f3c81611f16565b92915050565b600060208284031215611f5857611f57611d95565b5b6000611f6684828501611f2d565b91505092915050565b600073ffffffffffffffffffffffffffffffffffffffff82169050919050565b6000611f9a82611f6f565b9050919050565b611faa81611f8f565b82525050565b6000602082019050611fc56000830184611fa1565b92915050565b611fd481611f8f565b8114611fdf57600080fd5b50565b600081359050611ff181611fcb565b92915050565b6000806040838503121561200e5761200d611d95565b5b600061201c85828601611fe2565b925050602061202d85828601611f2d565b9150509250929050565b600080fd5b600080fd5b7f4e487b7100000000000000000000000000000000000000000000000000000000600052604160045260246000fd5b61207982611ea0565b810181811067ffffffffffffffff8211171561209857612097612041565b5b80604052505050565b60006120ab611d8b565b90506120b78282612070565b919050565b600067ffffffffffffffff8211156120d7576120d6612041565b5b6120e082611ea0565b9050602081019050919050565b82818337600083830152505050565b600061210f61210a846120bc565b6120a1565b90508281526020810184848401111561212b5761212a61203c565b5b6121368482856120ed565b509392505050565b600082601f83011261215357612152612037565b5b81356121638482602086016120fc565b91505092915050565b6000806040838503121561218357612182611d95565b5b600061219185828601611f2d565b925050602083013567ffffffffffffffff8111156121b2576121b1611d9a565b5b6121be8582860161213e565b9150509250929050565b6000806000606084860312156121e1576121e0611d95565b5b600084013567ffffffffffffffff8111156121ff576121fe611d9a565b5b61220b8682870161213e565b935050602061221c86828701611f2d565b925050604061222d86828701611f2d565b9150509250925092565b61224081611f0c565b82525050565b600060208201905061225b6000830184612237565b92915050565b60008060006060848603121561227a57612279611d95565b5b600061228886828701611fe2565b935050602061229986828701611fe2565b92505060406122aa86828701611f2d565b9150509250925092565b6000602082840312156122ca576122c9611d95565b5b60006122d884828501611fe2565b91505092915050565b6122ea81611e24565b81146122f557600080fd5b50565b600081359050612307816122e1565b92915050565b6000806040838503121561232457612323611d95565b5b600061233285828601611fe2565b9250506020612343858286016122f8565b9150509250929050565b600067ffffffffffffffff82111561236857612367612041565b5b61237182611ea0565b9050602081019050919050565b600061239161238c8461234d565b6120a1565b9050828152602081018484840111156123ad576123ac61203c565b5b6123b88482856120ed565b509392505050565b600082601f8301126123d5576123d4612037565b5b81356123e584826020860161237e565b91505092915050565b6000806000806080858703121561240857612407611d95565b5b600061241687828801611fe2565b945050602061242787828801611fe2565b935050604061243887828801611f2d565b925050606085013567ffffffffffffffff81111561245957612458611d9a565b5b612465878288016123c0565b91505092959194509250565b6000806040838503121561248857612487611d95565b5b600061249685828601611fe2565b92505060206124a785828601611fe2565b9150509250929050565b7f4e487b7100000000000000000000000000000000000000000000000000000000600052602260045260246000fd5b600060028204905060018216806124f857607f821691505b60208210810361250b5761250a6124b1565b5b50919050565b7f4552433732313a20617070726f76616c20746f2063757272656e74206f776e6560008201527f7200000000000000000000000000000000000000000000000000000000000000602082015250565b600061256d602183611e65565b915061257882612511565b604082019050919050565b6000602082019050818103600083015261259c81612560565b9050919050565b7f4552433732313a20617070726f76652063616c6c6572206973206e6f7420746f60008201527f6b656e206f776e6572206e6f7220617070726f76656420666f7220616c6c0000602082015250565b60006125ff603e83611e65565b915061260a826125a3565b604082019050919050565b6000602082019050818103600083015261262e816125f2565b9050919050565b7f4f6e6c79206f776e65722063616e206163636573737300000000000000000000600082015250565b600061266b601683611e65565b915061267682612635565b602082019050919050565b6000602082019050818103600083015261269a8161265e565b9050919050565b7f4552433732314d657461646174613a2055524920736574206f66206e6f6e657860008201527f697374656e7420746f6b656e0000000000000000000000000000000000000000602082015250565b60006126fd602c83611e65565b9150612708826126a1565b604082019050919050565b6000602082019050818103600083015261272c816126f0565b9050919050565b7f4e487b7100000000000000000000000000000000000000000000000000000000600052601160045260246000fd5b600061276d82611f0c565b915061277883611f0c565b92508282019050808211156127905761278f612733565b5b92915050565b60006127a182611f0c565b91507fffffffffffffffffffffffffffffffffffffffffffffffffffffffffffffffff82036127d3576127d2612733565b5b600182019050919050565b60006060820190506127f36000830186612237565b6128006020830185612237565b81810360408301526128128184611eb1565b9050949350505050565b7f4552433732313a2063616c6c6572206973206e6f7420746f6b656e206f776e6560008201527f72206e6f7220617070726f766564000000000000000000000000000000000000602082015250565b6000612878602e83611e65565b91506128838261281c565b604082019050919050565b600060208201905081810360008301526128a78161286b565b9050919050565b7f4552433732313a20696e76616c696420746f6b656e2049440000000000000000600082015250565b60006128e4601883611e65565b91506128ef826128ae565b602082019050919050565b60006020820190508181036000830152612913816128d7565b9050919050565b7f4552433732313a2061646472657373207a65726f206973206e6f74206120766160008201527f6c6964206f776e65720000000000000000000000000000000000000000000000602082015250565b6000612976602983611e65565b91506129818261291a565b604082019050919050565b600060208201905081810360008301526129a581612969565b9050919050565b600081905092915050565b60006129c282611e5a565b6129cc81856129ac565b93506129dc818560208601611e76565b80840191505092915050565b60006129f482856129b7565b9150612a0082846129b7565b91508190509392505050565b7f4f776e61626c653a206e6577206f776e657220697320746865207a65726f206160008201527f6464726573730000000000000000000000000000000000000000000000000000602082015250565b6000612a68602683611e65565b9150612a7382612a0c565b604082019050919050565b60006020820190508181036000830152612a9781612a5b565b9050919050565b7f45524337323155524953746f726167653a2055524920736574206f66206e6f6e60008201527f6578697374656e7420746f6b656e000000000000000000000000000000000000602082015250565b6000612afa602e83611e65565b9150612b0582612a9e565b604082019050919050565b60006020820190508181036000830152612b2981612aed565b9050919050565b60008190508160005260206000209050919050565b60006020601f8301049050919050565b600082821b905092915050565b600060088302612b927fffffffffffffffffffffffffffffffffffffffffffffffffffffffffffffffff82612b55565b612b9c8683612b55565b95508019841693508086168417925050509392505050565b6000819050919050565b6000612bd9612bd4612bcf84611f0c565b612bb4565b611f0c565b9050919050565b6000819050919050565b612bf383612bbe565b612c07612bff82612be0565b848454612b62565b825550505050565b600090565b612c1c612c0f565b612c27818484612bea565b505050565b5b81811015612c4b57612c40600082612c14565b600181019050612c2d565b5050565b601f821115612c9057612c6181612b30565b612c6a84612b45565b81016020851015612c79578190505b612c8d612c8585612b45565b830182612c2c565b50505b505050565b600082821c905092915050565b6000612cb360001984600802612c95565b1980831691505092915050565b6000612ccc8383612ca2565b9150826002028217905092915050565b612ce582611e5a565b67ffffffffffffffff811115612cfe57612cfd612041565b5b612d0882546124e0565b612d13828285612c4f565b600060209050601f831160018114612d465760008415612d34578287015190505b612d3e8582612cc0565b865550612da6565b601f198416612d5486612b30565b60005b82811015612d7c57848901518255600182019150602085019450602081019050612d57565b86831015612d995784890151612d95601f891682612ca2565b8355505b6001600288020188555050505b505050505050565b7f4552433732313a207472616e736665722066726f6d20696e636f72726563742060008201527f6f776e6572000000000000000000000000000000000000000000000000000000602082015250565b6000612e0a602583611e65565b9150612e1582612dae565b604082019050919050565b60006020820190508181036000830152612e3981612dfd565b9050919050565b7f4552433732313a207472616e7366657220746f20746865207a65726f2061646460008201527f7265737300000000000000000000000000000000000000000000000000000000602082015250565b6000612e9c602483611e65565b9150612ea782612e40565b604082019050919050565b60006020820190508181036000830152612ecb81612e8f565b9050919050565b6000612edd82611f0c565b9150612ee883611f0c565b9250828203905081811115612f0057612eff612733565b5b92915050565b7f4f776e61626c653a2063616c6c6572206973206e6f7420746865206f776e6572600082015250565b6000612f3c602083611e65565b9150612f4782612f06565b602082019050919050565b60006020820190508181036000830152612f6b81612f2f565b9050919050565b7f4552433732313a20617070726f766520746f2063616c6c657200000000000000600082015250565b6000612fa8601983611e65565b9150612fb382612f72565b602082019050919050565b60006020820190508181036000830152612fd781612f9b565b9050919050565b7f4552433732313a207472616e7366657220746f206e6f6e20455243373231526560008201527f63656976657220696d706c656d656e7465720000000000000000000000000000602082015250565b600061303a603283611e65565b915061304582612fde565b604082019050919050565b600060208201905081810360008301526130698161302d565b9050919050565b600081519050919050565b600082825260208201905092915050565b600061309782613070565b6130a1818561307b565b93506130b1818560208601611e76565b6130ba81611ea0565b840191505092915050565b60006080820190506130da6000830187611fa1565b6130e76020830186611fa1565b6130f46040830185612237565b8181036060830152613106818461308c565b905095945050505050565b60008151905061312081611dcb565b92915050565b60006020828403121561313c5761313b611d95565b5b600061314a84828501613111565b91505092915050565b7f4e487b7100000000000000000000000000000000000000000000000000000000600052601260045260246000fd5b600061318d82611f0c565b915061319883611f0c565b9250826131a8576131a7613153565b5b828204905092915050565b60006131be82611f0c565b91506131c983611f0c565b9250826131d9576131d8613153565b5b828206905092915050565b7f4e487b7100000000000000000000000000000000000000000000000000000000600052603260045260246000fd5b7f4552433732313a206d696e7420746f20746865207a65726f2061646472657373600082015250565b6000613249602083611e65565b915061325482613213565b602082019050919050565b600060208201905081810360008301526132788161323c565b9050919050565b7f4552433732313a20746f6b656e20616c7265616479206d696e74656400000000600082015250565b60006132b5601c83611e65565b91506132c08261327f565b602082019050919050565b600060208201905081810360008301526132e4816132a8565b905091905056fea2646970667358221220203d2fff2a69fa9798b7b461d2d3d90e68e6b63db63fe12b5a6835eb415f1c3264736f6c63430008100033",
  "immutableReferences": {},
  "source": "//SPDX-License-Identifier: MIT\npragma solidity >= 0.6.0 < 0.9.0;\n\nimport \"@openzeppelin/contracts/access/Ownable.sol\";\nimport \"@openzeppelin/contracts/token/ERC721/extensions/ERC721URIStorage.sol\";\n\ncontract myNFT is ERC721URIStorage, Ownable {\n\n    // address public _contractOwner;\n    uint256 public tokenCounter;\n    \n   \n    mapping(uint => string) public tokenURIMap;\n    mapping(uint => address) public tokenOwner;\n    event Minted(address indexed minter, uint price, uint nftID, string tokenURI);\n\n    constructor() ERC721(\"wbmNFTs\", \"WBM\") {\n        // _contractOwner = msg.sender;\n    }\n\n    modifier onlyNFTOwner(uint _tokenId) {\n        require(tokenOwner[_tokenId] == msg.sender, \"Only owner can accesss\");\n        _;\n    }\n\n    function mint(string memory _uri, uint _price, uint _mintAmount) public returns (uint){\n        uint _tokenId = tokenCounter;\n        for(uint i = 0 ; i <= _mintAmount; i++) {\n            _safeMint(msg.sender, (_tokenId + i));\n            tokenOwner[_tokenId + i] = msg.sender;\n            _setTokenURI((_tokenId + i), _uri);\n\n        tokenCounter++;\n\n        emit Minted(msg.sender, _price, _tokenId, _uri);\n        }\n       return _tokenId;\n    }\n\n        function updateTokenURI(uint256 _tokenId, string memory _tokenURI) public onlyNFTOwner(_tokenId) virtual {\n        require(_exists(_tokenId),\"ERC721Metadata: URI set of nonexistent token\"); \n        _setTokenURI(_tokenId, _tokenURI);\n    }\n}\n",
  "sourcePath": "/home/alekhya/Desktop/NFT-Truffle/contracts/myNFT.sol",
  "compiler": {
    "name": "solc",
    "version": "0.8.16+commit.07a7930e.Emscripten.clang"
  },
  "schemaVersion": "3.4.9",
  "updatedAt": "2022-09-21T13:11:03.423Z",
  "networkType": "ethereum",
  "devdoc": {
    "kind": "dev",
    "methods": {
      "approve(address,uint256)": {
        "details": "See {IERC721-approve}."
      },
      "balanceOf(address)": {
        "details": "See {IERC721-balanceOf}."
      },
      "getApproved(uint256)": {
        "details": "See {IERC721-getApproved}."
      },
      "isApprovedForAll(address,address)": {
        "details": "See {IERC721-isApprovedForAll}."
      },
      "name()": {
        "details": "See {IERC721Metadata-name}."
      },
      "owner()": {
        "details": "Returns the address of the current owner."
      },
      "ownerOf(uint256)": {
        "details": "See {IERC721-ownerOf}."
      },
      "renounceOwnership()": {
        "details": "Leaves the contract without owner. It will not be possible to call `onlyOwner` functions anymore. Can only be called by the current owner. NOTE: Renouncing ownership will leave the contract without an owner, thereby removing any functionality that is only available to the owner."
      },
      "safeTransferFrom(address,address,uint256)": {
        "details": "See {IERC721-safeTransferFrom}."
      },
      "safeTransferFrom(address,address,uint256,bytes)": {
        "details": "See {IERC721-safeTransferFrom}."
      },
      "setApprovalForAll(address,bool)": {
        "details": "See {IERC721-setApprovalForAll}."
      },
      "supportsInterface(bytes4)": {
        "details": "See {IERC165-supportsInterface}."
      },
      "symbol()": {
        "details": "See {IERC721Metadata-symbol}."
      },
      "tokenURI(uint256)": {
        "details": "See {IERC721Metadata-tokenURI}."
      },
      "transferFrom(address,address,uint256)": {
        "details": "See {IERC721-transferFrom}."
      },
      "transferOwnership(address)": {
        "details": "Transfers ownership of the contract to a new account (`newOwner`). Can only be called by the current owner."
      }
    },
    "version": 1
  },
  "userdoc": {
    "kind": "user",
    "methods": {},
    "version": 1
  }
}